{
  "abi": [
    {
      "inputs": [
        {
          "internalType": "bytes32[2]",
          "name": "_cid",
          "type": "bytes32[2]"
        }
      ],
      "stateMutability": "nonpayable",
      "type": "constructor"
    },
    {
      "inputs": [],
      "name": "AccessControlBadConfirmation",
      "type": "error"
    },
    {
      "inputs": [
        {
          "internalType": "address",
          "name": "account",
          "type": "address"
        },
        {
          "internalType": "bytes32",
          "name": "neededRole",
          "type": "bytes32"
        }
      ],
      "name": "AccessControlUnauthorizedAccount",
      "type": "error"
    },
    {
      "anonymous": false,
      "inputs": [
        {
          "indexed": true,
          "internalType": "bytes32",
          "name": "role",
          "type": "bytes32"
        },
        {
          "indexed": true,
          "internalType": "bytes32",
          "name": "previousAdminRole",
          "type": "bytes32"
        },
        {
          "indexed": true,
          "internalType": "bytes32",
          "name": "newAdminRole",
          "type": "bytes32"
        }
      ],
      "name": "RoleAdminChanged",
      "type": "event"
    },
    {
      "anonymous": false,
      "inputs": [
        {
          "indexed": true,
          "internalType": "bytes32",
          "name": "role",
          "type": "bytes32"
        },
        {
          "indexed": true,
          "internalType": "address",
          "name": "account",
          "type": "address"
        },
        {
          "indexed": true,
          "internalType": "address",
          "name": "sender",
          "type": "address"
        }
      ],
      "name": "RoleGranted",
      "type": "event"
    },
    {
      "anonymous": false,
      "inputs": [
        {
          "indexed": true,
          "internalType": "bytes32",
          "name": "role",
          "type": "bytes32"
        },
        {
          "indexed": true,
          "internalType": "address",
          "name": "account",
          "type": "address"
        },
        {
          "indexed": true,
          "internalType": "address",
          "name": "sender",
          "type": "address"
        }
      ],
      "name": "RoleRevoked",
      "type": "event"
    },
    {
      "anonymous": false,
      "inputs": [
        {
          "indexed": false,
          "internalType": "bytes32[2]",
          "name": "cid",
          "type": "bytes32[2]"
        }
      ],
      "name": "updated",
      "type": "event"
    },
    {
      "inputs": [],
      "name": "DEFAULT_ADMIN_ROLE",
      "outputs": [
        {
          "internalType": "bytes32",
          "name": "",
          "type": "bytes32"
        }
      ],
      "stateMutability": "view",
      "type": "function"
    },
    {
      "inputs": [],
      "name": "WRITER_ROLE",
      "outputs": [
        {
          "internalType": "bytes32",
          "name": "",
          "type": "bytes32"
        }
      ],
      "stateMutability": "view",
      "type": "function"
    },
    {
      "inputs": [
        {
          "internalType": "uint256",
          "name": "",
          "type": "uint256"
        }
      ],
      "name": "cid",
      "outputs": [
        {
          "internalType": "bytes32",
          "name": "",
          "type": "bytes32"
        }
      ],
      "stateMutability": "view",
      "type": "function"
    },
    {
      "inputs": [
        {
          "internalType": "bytes32",
          "name": "role",
          "type": "bytes32"
        }
      ],
      "name": "getRoleAdmin",
      "outputs": [
        {
          "internalType": "bytes32",
          "name": "",
          "type": "bytes32"
        }
      ],
      "stateMutability": "view",
      "type": "function"
    },
    {
      "inputs": [
        {
          "internalType": "bytes32",
          "name": "role",
          "type": "bytes32"
        },
        {
          "internalType": "address",
          "name": "account",
          "type": "address"
        }
      ],
      "name": "grantRole",
      "outputs": [],
      "stateMutability": "nonpayable",
      "type": "function"
    },
    {
      "inputs": [
        {
          "internalType": "address",
          "name": "account",
          "type": "address"
        }
      ],
      "name": "grantWriter",
      "outputs": [],
      "stateMutability": "nonpayable",
      "type": "function"
    },
    {
      "inputs": [
        {
          "internalType": "bytes32",
          "name": "role",
          "type": "bytes32"
        },
        {
          "internalType": "address",
          "name": "account",
          "type": "address"
        }
      ],
      "name": "hasRole",
      "outputs": [
        {
          "internalType": "bool",
          "name": "",
          "type": "bool"
        }
      ],
      "stateMutability": "view",
      "type": "function"
    },
    {
      "inputs": [],
      "name": "read",
      "outputs": [
        {
          "internalType": "bytes32[2]",
          "name": "",
          "type": "bytes32[2]"
        }
      ],
      "stateMutability": "view",
      "type": "function"
    },
    {
      "inputs": [
        {
          "internalType": "bytes32",
          "name": "role",
          "type": "bytes32"
        },
        {
          "internalType": "address",
          "name": "callerConfirmation",
          "type": "address"
        }
      ],
      "name": "renounceRole",
      "outputs": [],
      "stateMutability": "nonpayable",
      "type": "function"
    },
    {
      "inputs": [
        {
          "internalType": "bytes32",
          "name": "role",
          "type": "bytes32"
        },
        {
          "internalType": "address",
          "name": "account",
          "type": "address"
        }
      ],
      "name": "revokeRole",
      "outputs": [],
      "stateMutability": "nonpayable",
      "type": "function"
    },
    {
      "inputs": [
        {
          "internalType": "bytes4",
          "name": "interfaceId",
          "type": "bytes4"
        }
      ],
      "name": "supportsInterface",
      "outputs": [
        {
          "internalType": "bool",
          "name": "",
          "type": "bool"
        }
      ],
      "stateMutability": "view",
      "type": "function"
    },
    {
      "inputs": [
        {
          "internalType": "bytes32[2]",
          "name": "previous_cid",
          "type": "bytes32[2]"
        },
        {
          "internalType": "bytes32[2]",
          "name": "_cid",
          "type": "bytes32[2]"
        }
      ],
      "name": "update",
      "outputs": [],
      "stateMutability": "nonpayable",
      "type": "function"
    }
  ],
  "bytecode": {
    "object": "0x608060405234801561001057600080fd5b506040516109a93803806109a983398101604081905261002f91610179565b61003a60003361007a565b506100657f2b8f168f361ac1393a163ed4adfa899a87be7b7c71645167bdaddd822ae453c83361007a565b506100736001826002610126565b5050610206565b6000828152602081815260408083206001600160a01b038516845290915281205460ff1661011c576000838152602081815260408083206001600160a01b03861684529091529020805460ff191660011790556100d43390565b6001600160a01b0316826001600160a01b0316847f2f8788117e7eff1d82e926ec794901d17c78024a50270940304540a733656f0d60405160405180910390a4506001610120565b5060005b92915050565b8260028101928215610154579160200282015b82811115610154578251825591602001919060010190610139565b50610160929150610164565b5090565b5b808211156101605760008155600101610165565b60006040828403121561018b57600080fd5b82601f83011261019a57600080fd5b604080519081016001600160401b03811182821017156101ca57634e487b7160e01b600052604160045260246000fd5b80604052508060408401858111156101e157600080fd5b845b818110156101fb5780518352602092830192016101e3565b509195945050505050565b610794806102156000396000f3fe608060405234801561001057600080fd5b50600436106100b45760003560e01c80639beaab7b116100715780639beaab7b14610162578063a217fddf14610189578063b0c479a514610191578063cea66831146101a4578063d0f1986c146101b7578063d547741f146101ca57600080fd5b806301ffc9a7146100b9578063248a9ca3146100e15780632f2ff15d1461011257806336568abe1461012757806357de26a41461013a57806391d148541461014f575b600080fd5b6100cc6100c73660046105ae565b6101dd565b60405190151581526020015b60405180910390f35b6101046100ef3660046105df565b60009081526020819052604090206001015490565b6040519081526020016100d8565b610125610120366004610614565b610214565b005b610125610135366004610614565b61023f565b610142610277565b6040516100d89190610640565b6100cc61015d366004610614565b6102b1565b6101047f2b8f168f361ac1393a163ed4adfa899a87be7b7c71645167bdaddd822ae453c881565b610104600081565b61010461019f3660046105df565b6102da565b6101256101b23660046106ef565b6102f1565b6101256101c536600461071b565b61038f565b6101256101d8366004610614565b6103d1565b60006001600160e01b03198216637965db0b60e01b148061020e57506301ffc9a760e01b6001600160e01b03198316145b92915050565b60008281526020819052604090206001015461022f816103f6565b6102398383610403565b50505050565b6001600160a01b03811633146102685760405163334bd91960e11b815260040160405180910390fd5b6102728282610495565b505050565b61027f61053d565b60408051808201918290529060019060029082845b815481526020019060010190808311610294575050505050905090565b6000918252602082815260408084206001600160a01b0393909316845291905290205460ff1690565b600181600281106102ea57600080fd5b0154905081565b61031b7f2b8f168f361ac1393a163ed4adfa899a87be7b7c71645167bdaddd822ae453c8336102b1565b61032457600080fd5b60015482511461033357600080fd5b60025460208301511461034557600080fd5b610352600182600261055b565b507f59fc805dc9dcf752651fddf34ead618ade4da49d2f4d36344d539052cfb0b4fd60016040516103839190610736565b60405180910390a15050565b61039a6000336102b1565b6103a357600080fd5b6103cd7f2b8f168f361ac1393a163ed4adfa899a87be7b7c71645167bdaddd822ae453c882610403565b5050565b6000828152602081905260409020600101546103ec816103f6565b6102398383610495565b6104008133610500565b50565b600061040f83836102b1565b61048d576000838152602081815260408083206001600160a01b03861684529091529020805460ff191660011790556104453390565b6001600160a01b0316826001600160a01b0316847f2f8788117e7eff1d82e926ec794901d17c78024a50270940304540a733656f0d60405160405180910390a450600161020e565b50600061020e565b60006104a183836102b1565b1561048d576000838152602081815260408083206001600160a01b0386168085529252808320805460ff1916905551339286917ff6391f5c32d9c69d2a47ea670b442974b53935d1edc7fd64eb21e047a839171b9190a450600161020e565b61050a82826102b1565b6103cd5760405163e2517d3f60e01b81526001600160a01b03821660048201526024810183905260440160405180910390fd5b60405180604001604052806002906020820280368337509192915050565b8260028101928215610589579160200282015b8281111561058957825182559160200191906001019061056e565b50610595929150610599565b5090565b5b80821115610595576000815560010161059a565b6000602082840312156105c057600080fd5b81356001600160e01b0319811681146105d857600080fd5b9392505050565b6000602082840312156105f157600080fd5b5035919050565b80356001600160a01b038116811461060f57600080fd5b919050565b6000806040838503121561062757600080fd5b82359150610637602084016105f8565b90509250929050565b60408101818360005b6002811015610668578151835260209283019290910190600101610649565b50505092915050565b600082601f83011261068257600080fd5b6040516040810181811067ffffffffffffffff821117156106b357634e487b7160e01b600052604160045260246000fd5b80604052508060408401858111156106ca57600080fd5b845b818110156106e45780358352602092830192016106cc565b509195945050505050565b6000806080838503121561070257600080fd5b61070c8484610671565b91506106378460408501610671565b60006020828403121561072d57600080fd5b6105d8826105f8565b60408101818360005b600281101561066857815483526020909201916001918201910161073f56fea2646970667358221220691813d3ed4c11f49f4d9fd9129c8cd5e99b6847326bcef2a88e494a4266aad764736f6c63430008150033",
    "linkReferences": {}
  },
  "methodIdentifiers": {
    "DEFAULT_ADMIN_ROLE()": "a217fddf",
    "WRITER_ROLE()": "9beaab7b",
    "cid(uint256)": "b0c479a5",
    "getRoleAdmin(bytes32)": "248a9ca3",
    "grantRole(bytes32,address)": "2f2ff15d",
    "grantWriter(address)": "d0f1986c",
    "hasRole(bytes32,address)": "91d14854",
    "read()": "57de26a4",
    "renounceRole(bytes32,address)": "36568abe",
    "revokeRole(bytes32,address)": "d547741f",
    "supportsInterface(bytes4)": "01ffc9a7",
    "update(bytes32[2],bytes32[2])": "cea66831"
  },
  "id": 25
}